{
  "contractName": "CoinFlip",
  "abi": [
    {
      "inputs": [],
      "payable": true,
      "stateMutability": "payable",
      "type": "constructor"
    },
    {
      "anonymous": false,
      "inputs": [
        {
          "indexed": false,
          "internalType": "string",
          "name": "result",
          "type": "string"
        }
      ],
      "name": "CoinFlipped",
      "type": "event"
    },
    {
      "anonymous": false,
      "inputs": [
        {
          "indexed": false,
          "internalType": "string",
          "name": "description",
          "type": "string"
        }
      ],
      "name": "LogNewProvableQuery",
      "type": "event"
    },
    {
      "anonymous": false,
      "inputs": [
        {
          "indexed": true,
          "internalType": "address",
          "name": "player",
          "type": "address"
        },
        {
          "indexed": false,
          "internalType": "bytes32",
          "name": "queryID",
          "type": "bytes32"
        },
        {
          "indexed": false,
          "internalType": "uint256",
          "name": "value",
          "type": "uint256"
        }
      ],
      "name": "betPlaced",
      "type": "event"
    },
    {
      "anonymous": false,
      "inputs": [
        {
          "indexed": true,
          "internalType": "address",
          "name": "player",
          "type": "address"
        },
        {
          "indexed": false,
          "internalType": "bytes32",
          "name": "Id",
          "type": "bytes32"
        },
        {
          "indexed": false,
          "internalType": "uint256",
          "name": "betValue",
          "type": "uint256"
        },
        {
          "indexed": false,
          "internalType": "bool",
          "name": "result",
          "type": "bool"
        }
      ],
      "name": "betTaken",
      "type": "event"
    },
    {
      "anonymous": false,
      "inputs": [
        {
          "indexed": false,
          "internalType": "address",
          "name": "owner",
          "type": "address"
        },
        {
          "indexed": false,
          "internalType": "uint256",
          "name": "funds",
          "type": "uint256"
        }
      ],
      "name": "contractFunded",
      "type": "event"
    },
    {
      "anonymous": false,
      "inputs": [
        {
          "indexed": false,
          "internalType": "uint256",
          "name": "randomNumber",
          "type": "uint256"
        }
      ],
      "name": "generatedRandomNumber",
      "type": "event"
    },
    {
      "constant": true,
      "inputs": [
        {
          "internalType": "bytes32",
          "name": "",
          "type": "bytes32"
        }
      ],
      "name": "bets",
      "outputs": [
        {
          "internalType": "address payable",
          "name": "player",
          "type": "address"
        },
        {
          "internalType": "uint256",
          "name": "betValue",
          "type": "uint256"
        },
        {
          "internalType": "bool",
          "name": "result",
          "type": "bool"
        }
      ],
      "payable": false,
      "stateMutability": "view",
      "type": "function"
    },
    {
      "constant": true,
      "inputs": [
        {
          "internalType": "address",
          "name": "",
          "type": "address"
        }
      ],
      "name": "waiting",
      "outputs": [
        {
          "internalType": "bool",
          "name": "",
          "type": "bool"
        }
      ],
      "payable": false,
      "stateMutability": "view",
      "type": "function"
    },
    {
      "constant": false,
      "inputs": [
        {
          "internalType": "bool",
          "name": "_bet",
          "type": "bool"
        }
      ],
      "name": "placeBet",
      "outputs": [
        {
          "internalType": "string",
          "name": "",
          "type": "string"
        }
      ],
      "payable": true,
      "stateMutability": "payable",
      "type": "function"
    },
    {
      "constant": false,
      "inputs": [
        {
          "internalType": "bytes32",
          "name": "_myid",
          "type": "bytes32"
        },
        {
          "internalType": "string",
          "name": "_result",
          "type": "string"
        }
      ],
      "name": "__callback",
      "outputs": [],
      "payable": false,
      "stateMutability": "nonpayable",
      "type": "function"
    },
    {
      "constant": false,
      "inputs": [
        {
          "internalType": "bytes32",
          "name": "_queryID",
          "type": "bytes32"
        },
        {
          "internalType": "string",
          "name": "_result",
          "type": "string"
        },
        {
          "internalType": "bytes",
          "name": "_proof",
          "type": "bytes"
        }
      ],
      "name": "__callback",
      "outputs": [],
      "payable": false,
      "stateMutability": "nonpayable",
      "type": "function"
    },
    {
      "constant": false,
      "inputs": [],
      "name": "deposit",
      "outputs": [],
      "payable": true,
      "stateMutability": "payable",
      "type": "function"
    },
    {
      "constant": true,
      "inputs": [],
      "name": "getContractBalance",
      "outputs": [
        {
          "internalType": "uint256",
          "name": "",
          "type": "uint256"
        }
      ],
      "payable": false,
      "stateMutability": "view",
      "type": "function"
    },
    {
      "constant": false,
      "inputs": [],
      "name": "withdraw",
      "outputs": [
        {
          "internalType": "uint256",
          "name": "",
          "type": "uint256"
        }
      ],
      "payable": true,
      "stateMutability": "payable",
      "type": "function"
    }
  ],
  "bytecode": "0x6080604052600060085533600760006101000a81548173ffffffffffffffffffffffffffffffffffffffff021916908373ffffffffffffffffffffffffffffffffffffffff160217905550614267806100596000396000f3fe60806040526004361061007b5760003560e01c80636f9fb98a1161004e5780636f9fb98a14610382578063c902c3ae146103ad578063d0e30db01461043a578063e437786d146104445761007b565b8063096a37781461008057806327dc297e1461012957806338bbfa50146101fb5780633ccfd60b14610364575b600080fd5b6100ae6004803603602081101561009657600080fd5b810190808035151590602001909291905050506104ad565b6040518080602001828103825283818151815260200191508051906020019080838360005b838110156100ee5780820151818401526020810190506100d3565b50505050905090810190601f16801561011b5780820380516001836020036101000a031916815260200191505b509250505060405180910390f35b34801561013557600080fd5b506101f96004803603604081101561014c57600080fd5b81019080803590602001909291908035906020019064010000000081111561017357600080fd5b82018360208201111561018557600080fd5b803590602001918460018302840111640100000000831117156101a757600080fd5b91908080601f016020809104026020016040519081016040528093929190818152602001838380828437600081840152601f19601f820116905080830192505050505050509192919290505050610c50565b005b34801561020757600080fd5b506103626004803603606081101561021e57600080fd5b81019080803590602001909291908035906020019064010000000081111561024557600080fd5b82018360208201111561025757600080fd5b8035906020019184600183028401116401000000008311171561027957600080fd5b91908080601f016020809104026020016040519081016040528093929190818152602001838380828437600081840152601f19601f820116905080830192505050505050509192919290803590602001906401000000008111156102dc57600080fd5b8201836020820111156102ee57600080fd5b8035906020019184600183028401116401000000008311171561031057600080fd5b91908080601f016020809104026020016040519081016040528093929190818152602001838380828437600081840152601f19601f820116905080830192505050505050509192919290505050610c93565b005b61036c610f4d565b6040518082815260200191505060405180910390f35b34801561038e57600080fd5b5061039761106b565b6040518082815260200191505060405180910390f35b3480156103b957600080fd5b506103e6600480360360208110156103d057600080fd5b8101908080359060200190929190505050611075565b604051808473ffffffffffffffffffffffffffffffffffffffff1673ffffffffffffffffffffffffffffffffffffffff16815260200183815260200182151515158152602001935050505060405180910390f35b6104426110cc565b005b34801561045057600080fd5b506104936004803603602081101561046757600080fd5b81019080803573ffffffffffffffffffffffffffffffffffffffff169060200190929190505050611211565b604051808215151515815260200191505060405180910390f35b60606002600854816104bb57fe5b04341115610514576040517f08c379a000000000000000000000000000000000000000000000000000000000815260040180806020018281038252603f815260200180614145603f913960400191505060405180910390fd5b600234026008541015610572576040517f08c379a00000000000000000000000000000000000000000000000000000000081526004018080602001828103825260498152602001806141ea6049913960600191505060405180910390fd5b6001600660003373ffffffffffffffffffffffffffffffffffffffff1673ffffffffffffffffffffffffffffffffffffffff16815260200190815260200160002060006101000a81548160ff0219169083151502179055506000809050600062030d40905060006105e583600184611231565b905060405180606001604052803373ffffffffffffffffffffffffffffffffffffffff168152602001348152602001600015158152506005600083815260200190815260200160002060008201518160000160006101000a81548173ffffffffffffffffffffffffffffffffffffffff021916908373ffffffffffffffffffffffffffffffffffffffff1602179055506020820151816001015560408201518160020160006101000a81548160ff0219169083151502179055509050503373ffffffffffffffffffffffffffffffffffffffff167ffc2fe68101fc6915d659df206ef61ccafa88befcd022d6a9b8fadab1f56968848234604051808381526020018281526020019250505060405180910390a27fc4dc360d0a9c0677a3379ae0a3d81e887f761e65fdf3d7e00859d1bcd3c473896040518080602001828103825260318152602001806141146031913960400191505060405180910390a16001151585151514801561077e5750600115156005600083815260200190815260200160002060020160009054906101000a900460ff161515145b156108eb57600234026008600082825403925050819055503373ffffffffffffffffffffffffffffffffffffffff166108fc600234029081150290604051600060405180830381858888f193505050501580156107df573d6000803e3d6000fd5b506040518060400160405280600881526020017f596f752057494e210000000000000000000000000000000000000000000000008152506009908051906020019061082b92919061402d565b507ff18b79d50cde7ea9989ff0c983b4b126202036790a8f4803f7d59bb003779c9f600960405180806020018281038252838181546001816001161561010002031660029004815260200191508054600181600116156101000203166002900480156108d85780601f106108ad576101008083540402835291602001916108d8565b820191906000526020600020905b8154815290600101906020018083116108bb57829003601f168201915b50509250505060405180910390a1610bab565b600015158515151480156109265750600015156005600083815260200190815260200160002060020160009054906101000a900460ff161515145b15610a9357600234026008600082825403925050819055503373ffffffffffffffffffffffffffffffffffffffff166108fc600234029081150290604051600060405180830381858888f19350505050158015610987573d6000803e3d6000fd5b506040518060400160405280600881526020017f596f752057494e21000000000000000000000000000000000000000000000000815250600990805190602001906109d392919061402d565b507ff18b79d50cde7ea9989ff0c983b4b126202036790a8f4803f7d59bb003779c9f60096040518080602001828103825283818154600181600116156101000203166002900481526020019150805460018160011615610100020316600290048015610a805780601f10610a5557610100808354040283529160200191610a80565b820191906000526020600020905b815481529060010190602001808311610a6357829003601f168201915b50509250505060405180910390a1610baa565b346008600082825401925050819055506040518060400160405280601581526020017f596f75204c4f4f5345212054727920416761696e21000000000000000000000081525060099080519060200190610aee92919061402d565b507ff18b79d50cde7ea9989ff0c983b4b126202036790a8f4803f7d59bb003779c9f60096040518080602001828103825283818154600181600116156101000203166002900481526020019150805460018160011615610100020316600290048015610b9b5780601f10610b7057610100808354040283529160200191610b9b565b820191906000526020600020905b815481529060010190602001808311610b7e57829003601f168201915b50509250505060405180910390a15b5b60098054600181600116156101000203166002900480601f016020809104026020016040519081016040528092919081815260200182805460018160011615610100020316600290048015610c415780601f10610c1657610100808354040283529160200191610c41565b820191906000526020600020905b815481529060010190602001808311610c2457829003601f168201915b50505050509350505050919050565b610c8f828260006040519080825280601f01601f191660200182016040528015610c895781602001600182028038833980820191505090505b50610c93565b5050565b610c9b6117cc565b73ffffffffffffffffffffffffffffffffffffffff163373ffffffffffffffffffffffffffffffffffffffff1614610cd257600080fd5b6000610cdf848484611ae9565b60ff1614610cec57610e1f565b60006002836040516020018082805190602001908083835b60208310610d275780518252602082019150602081019050602083039250610d04565b6001836020036101000a0380198251168184511680821785525050505050509050019150506040516020818303038152906040528051906020012060001c81610d6c57fe5b0690506001811415610dac5760016005600086815260200190815260200160002060020160006101000a81548160ff021916908315150217905550610de6565b6000811415610de55760006005600086815260200190815260200160002060020160006101000a81548160ff0219169083151502179055505b5b7fc13d60fe9dffdb6908d2d446cd18134373a51db0738ee04f296eeb9128121cbc816040518082815260200191505060405180910390a1505b6000600660003373ffffffffffffffffffffffffffffffffffffffff1673ffffffffffffffffffffffffffffffffffffffff16815260200190815260200160002060006101000a81548160ff0219169083151502179055506005600084815260200190815260200160002060000160009054906101000a900473ffffffffffffffffffffffffffffffffffffffff1673ffffffffffffffffffffffffffffffffffffffff167f6938cbf453af775aeb0f0d1c25d85e2b060360487baf9892b54261adcb6b2d318460056000878152602001908152602001600020600101546005600088815260200190815260200160002060020160009054906101000a900460ff166040518084815260200183815260200182151515158152602001935050505060405180910390a2505050565b6000600760009054906101000a900473ffffffffffffffffffffffffffffffffffffffff1673ffffffffffffffffffffffffffffffffffffffff163373ffffffffffffffffffffffffffffffffffffffff1614611012576040517f08c379a00000000000000000000000000000000000000000000000000000000081526004018080602001828103825260188152602001807f4f6e6c79206f776e65722063616e20776974686472617721000000000000000081525060200191505060405180910390fd5b3373ffffffffffffffffffffffffffffffffffffffff166108fc6008549081150290604051600060405180830381858888f1935050505015801561105a573d6000803e3d6000fd5b506000600881905550600854905090565b6000600854905090565b60056020528060005260406000206000915090508060000160009054906101000a900473ffffffffffffffffffffffffffffffffffffffff16908060010154908060020160009054906101000a900460ff16905083565b600760009054906101000a900473ffffffffffffffffffffffffffffffffffffffff1673ffffffffffffffffffffffffffffffffffffffff163373ffffffffffffffffffffffffffffffffffffffff1614611172576040517f08c379a00000000000000000000000000000000000000000000000000000000081526004018080602001828103825260268152602001806141c46026913960400191505060405180910390fd5b346008600082825401925050819055507fff043843182fec3fbcbc695545b7652d340a2cf0919615adb04d98a00e7de8e2600760009054906101000a900473ffffffffffffffffffffffffffffffffffffffff1634604051808373ffffffffffffffffffffffffffffffffffffffff1673ffffffffffffffffffffffffffffffffffffffff1681526020018281526020019250505060405180910390a1565b60066020528060005260406000206000915054906101000a900460ff1681565b60008083118015611243575060208311155b61124c57600080fd5b600a84029350606060016040519080825280601f01601f1916602001820160405280156112885781602001600182028038833980820191505090505b5090508360f81b8160008151811061129c57fe5b60200101907effffffffffffffffffffffffffffffffffffffffffffffffffffffffffffff1916908160001a905350606060206040519080825280601f01601f1916602001820160405280156113015781602001600182028038833980820191505090505b509050606060206040519080825280601f01601f19166020018201604052801561133a5781602001600182028038833980820191505090505b5090506000611347611c19565b905060208352424118600143034018602084015260208252806020830152606060206040519080825280601f01601f19166020018201604052801561139b5781602001600182028038833980820191505090505b509050886020820152606060086040519080825280601f01601f1916602001820160405280156113da5781602001600182028038833980820191505090505b5090506113ed8260186008846000611f36565b506113f66140ad565b6040518060800160405280878152602001888152602001868152602001848152509050600061145b6040518060400160405280600681526020017f72616e646f6d0000000000000000000000000000000000000000000000000000815250838c611f95565b9050606060086040519080825280601f01601f1916602001820160405280156114935781602001600182028038833980820191505090505b50905060208401517f0100000000000000000000000000000000000000000000000000000000000000810460278301537e01000000000000000000000000000000000000000000000000000000000000810460268301537d010000000000000000000000000000000000000000000000000000000000810460258301537c0100000000000000000000000000000000000000000000000000000000810460248301537b01000000000000000000000000000000000000000000000000000000810460238301537a0100000000000000000000000000000000000000000000000000008104602283015379010000000000000000000000000000000000000000000000000081046021830153780100000000000000000000000000000000000000000000000081046020830153506117b98282856001600481106115d257fe5b60200201516002876000600481106115e657fe5b60200201516040518082805190602001908083835b6020831061161e57805182526020820191506020810190506020830392506115fb565b6001836020036101000a038019825116818451168082178552505050505050905001915050602060405180830381855afa158015611660573d6000803e3d6000fd5b5050506040513d602081101561167557600080fd5b81019080805190602001909291905050508760026004811061169357fe5b60200201516040516020018085805190602001908083835b602083106116ce57805182526020820191506020810190506020830392506116ab565b6001836020036101000a03801982511681845116808217855250505050505090500184805190602001908083835b6020831061171f57805182526020820191506020810190506020830392506116fc565b6001836020036101000a03801982511681845116808217855250505050505090500183815260200182805190602001908083835b602083106117765780518252602082019150602081019050602083039250611753565b6001836020036101000a03801982511681845116808217855250505050505090500194505050505060405160208183030381529060405280519060200120612302565b8199505050505050505050509392505050565b60008073ffffffffffffffffffffffffffffffffffffffff16600160009054906101000a900473ffffffffffffffffffffffffffffffffffffffff1673ffffffffffffffffffffffffffffffffffffffff16148061185457506000611852600160009054906101000a900473ffffffffffffffffffffffffffffffffffffffff1661231e565b145b15611865576118636000612329565b505b600160009054906101000a900473ffffffffffffffffffffffffffffffffffffffff1673ffffffffffffffffffffffffffffffffffffffff166338cc48316040518163ffffffff1660e01b8152600401602060405180830381600087803b1580156118cf57600080fd5b505af11580156118e3573d6000803e3d6000fd5b505050506040513d60208110156118f957600080fd5b810190808051906020019092919050505073ffffffffffffffffffffffffffffffffffffffff166000809054906101000a900473ffffffffffffffffffffffffffffffffffffffff1673ffffffffffffffffffffffffffffffffffffffff1614611a4257600160009054906101000a900473ffffffffffffffffffffffffffffffffffffffff1673ffffffffffffffffffffffffffffffffffffffff166338cc48316040518163ffffffff1660e01b8152600401602060405180830381600087803b1580156119c757600080fd5b505af11580156119db573d6000803e3d6000fd5b505050506040513d60208110156119f157600080fd5b81019080805190602001909291905050506000806101000a81548173ffffffffffffffffffffffffffffffffffffffff021916908373ffffffffffffffffffffffffffffffffffffffff1602179055505b6000809054906101000a900473ffffffffffffffffffffffffffffffffffffffff1673ffffffffffffffffffffffffffffffffffffffff1663c281d19e6040518163ffffffff1660e01b815260040160206040518083038186803b158015611aa957600080fd5b505afa158015611abd573d6000803e3d6000fd5b505050506040513d6020811015611ad357600080fd5b8101908080519060200190929190505050905090565b60007f4c0000000000000000000000000000000000000000000000000000000000000082600081518110611b1957fe5b602001015160f81c60f81b7effffffffffffffffffffffffffffffffffffffffffffffffffffffffffffff1916141580611bac57507f500000000000000000000000000000000000000000000000000000000000000082600181518110611b7c57fe5b602001015160f81c60f81b7effffffffffffffffffffffffffffffffffffffffffffffffffffffffffffff191614155b80611bd85750600160ff1682600281518110611bc457fe5b602001015160f81c60f81b60f81c60ff1614155b15611be65760019050611c12565b6000611bfb838686611bf661233a565b6123dc565b905080611c0c576002915050611c12565b60009150505b9392505050565b60008073ffffffffffffffffffffffffffffffffffffffff16600160009054906101000a900473ffffffffffffffffffffffffffffffffffffffff1673ffffffffffffffffffffffffffffffffffffffff161480611ca157506000611c9f600160009054906101000a900473ffffffffffffffffffffffffffffffffffffffff1661231e565b145b15611cb257611cb06000612329565b505b600160009054906101000a900473ffffffffffffffffffffffffffffffffffffffff1673ffffffffffffffffffffffffffffffffffffffff166338cc48316040518163ffffffff1660e01b8152600401602060405180830381600087803b158015611d1c57600080fd5b505af1158015611d30573d6000803e3d6000fd5b505050506040513d6020811015611d4657600080fd5b810190808051906020019092919050505073ffffffffffffffffffffffffffffffffffffffff166000809054906101000a900473ffffffffffffffffffffffffffffffffffffffff1673ffffffffffffffffffffffffffffffffffffffff1614611e8f57600160009054906101000a900473ffffffffffffffffffffffffffffffffffffffff1673ffffffffffffffffffffffffffffffffffffffff166338cc48316040518163ffffffff1660e01b8152600401602060405180830381600087803b158015611e1457600080fd5b505af1158015611e28573d6000803e3d6000fd5b505050506040513d6020811015611e3e57600080fd5b81019080805190602001909291905050506000806101000a81548173ffffffffffffffffffffffffffffffffffffffff021916908373ffffffffffffffffffffffffffffffffffffffff1602179055505b6000809054906101000a900473ffffffffffffffffffffffffffffffffffffffff1673ffffffffffffffffffffffffffffffffffffffff1663abaa5f3e6040518163ffffffff1660e01b815260040160206040518083038186803b158015611ef657600080fd5b505afa158015611f0a573d6000803e3d6000fd5b505050506040513d6020811015611f2057600080fd5b8101908080519060200190929190505050905090565b6060600082850190508084511015611f4d57600080fd5b600086602001905060008460200190505b868860200101821015611f865781890151808288015250602082019150602081019050611f5e565b85935050505095945050505050565b60008073ffffffffffffffffffffffffffffffffffffffff16600160009054906101000a900473ffffffffffffffffffffffffffffffffffffffff1673ffffffffffffffffffffffffffffffffffffffff16148061201d5750600061201b600160009054906101000a900473ffffffffffffffffffffffffffffffffffffffff1661231e565b145b1561202e5761202c6000612329565b505b600160009054906101000a900473ffffffffffffffffffffffffffffffffffffffff1673ffffffffffffffffffffffffffffffffffffffff166338cc48316040518163ffffffff1660e01b8152600401602060405180830381600087803b15801561209857600080fd5b505af11580156120ac573d6000803e3d6000fd5b505050506040513d60208110156120c257600080fd5b810190808051906020019092919050505073ffffffffffffffffffffffffffffffffffffffff166000809054906101000a900473ffffffffffffffffffffffffffffffffffffffff1673ffffffffffffffffffffffffffffffffffffffff161461220b57600160009054906101000a900473ffffffffffffffffffffffffffffffffffffffff1673ffffffffffffffffffffffffffffffffffffffff166338cc48316040518163ffffffff1660e01b8152600401602060405180830381600087803b15801561219057600080fd5b505af11580156121a4573d6000803e3d6000fd5b505050506040513d60208110156121ba57600080fd5b81019080805190602001909291905050506000806101000a81548173ffffffffffffffffffffffffffffffffffffffff021916908373ffffffffffffffffffffffffffffffffffffffff1602179055505b6060600460405190808252806020026020018201604052801561224257816020015b606081526020019060019003908161222d5790505b5090508360006004811061225257fe5b60200201518160008151811061226457fe5b60200260200101819052508360016004811061227c57fe5b60200201518160018151811061228e57fe5b6020026020010181905250836002600481106122a657fe5b6020020151816002815181106122b857fe5b6020026020010181905250836003600481106122d057fe5b6020020151816003815181106122e257fe5b60200260200101819052506122f8858285612a87565b9150509392505050565b8060036000848152602001908152602001600020819055505050565b6000813b9050919050565b6000612333612fe9565b9050919050565b606060028054600181600116156101000203166002900480601f0160208091040260200160405190810160405280929190818152602001828054600181600116156101000203166002900480156123d25780601f106123a7576101008083540402835291602001916123d2565b820191906000526020600020905b8154815290600101906020018083116123b557829003601f168201915b5050505050905090565b60008060206002876045815181106123f057fe5b602001015160f81c60f81b60f81c60ff1601604401019050606060206040519080825280601f01601f19166020018201604052801561243e5781602001600182028038833980820191505090505b50905061245087836020846000611f36565b50600284876040516020018083805190602001908083835b6020831061248b5780518252602082019150602081019050602083039250612468565b6001836020036101000a038019825116818451168082178552505050505050905001828152602001925050506040516020818303038152906040526040518082805190602001908083835b602083106124f957805182526020820191506020810190506020830392506124d6565b6001836020036101000a038019825116818451168082178552505050505050905001915050602060405180830381855afa15801561253b573d6000803e3d6000fd5b5050506040513d602081101561255057600080fd5b8101908080519060200190929190505050604051602001808281526020019150506040516020818303038152906040528051906020012081805190602001201461259f57600092505050612a7f565b606060028860016049860101815181106125b557fe5b602001015160f81c60f81b60f81c60ff16016040519080825280601f01601f1916602001820160405280156125f95781602001600182028038833980820191505090505b50905061260e88604985018351846000611f36565b506126d96002826040518082805190602001908083835b602083106126485780518252602082019150602081019050602083039250612625565b6001836020036101000a038019825116818451168082178552505050505050905001915050602060405180830381855afa15801561268a573d6000803e3d6000fd5b5050506040513d602081101561269f57600080fd5b8101908080519060200190929190505050878a60086020880101815181106126c357fe5b602001015160f81c60f81b60f81c60ff16613540565b6126e95760009350505050612a7f565b606060296040519080825280601f01601f19166020018201604052801561271f5781602001600182028038833980820191505090505b50905061273489602086016029846000611f36565b506060604080519080825280601f01601f19166020018201604052801561276a5781602001600182028038833980820191505090505b50905060006041845160296020890101010190506127908b604083036040856000611f36565b5060006002836040518082805190602001908083835b602083106127c957805182526020820191506020810190506020830392506127a6565b6001836020036101000a038019825116818451168082178552505050505050905001915050602060405180830381855afa15801561280b573d6000803e3d6000fd5b5050506040513d602081101561282057600080fd5b8101908080519060200190929190505050905083816040516020018083805190602001908083835b6020831061286b5780518252602082019150602081019050602083039250612848565b6001836020036101000a0380198251168184511680821785525050505050509050018281526020019250505060405160208183030381529060405280519060200120600360008d81526020019081526020016000205414156128e357600360008c8152602001908152602001600020600090556128f3565b6000975050505050505050612a7f565b606060496040519080825280601f01601f1916602001820160405280156129295781602001600182028038833980820191505090505b50905061293b8d896049846000611f36565b506129e46002826040518082805190602001908083835b602083106129755780518252602082019150602081019050602083039250612952565b6001836020036101000a038019825116818451168082178552505050505050905001915050602060405180830381855afa1580156129b7573d6000803e3d6000fd5b5050506040513d60208110156129cc57600080fd5b810190808051906020019092919050505087866135f0565b6129f957600098505050505050505050612a7f565b6004600083815260200190815260200160002060009054906101000a900460ff16612a5357612a288d846137ae565b6004600084815260200190815260200160002060006101000a81548160ff0219169083151502179055505b6004600083815260200190815260200160002060009054906101000a900460ff16985050505050505050505b949350505050565b60008073ffffffffffffffffffffffffffffffffffffffff16600160009054906101000a900473ffffffffffffffffffffffffffffffffffffffff1673ffffffffffffffffffffffffffffffffffffffff161480612b0f57506000612b0d600160009054906101000a900473ffffffffffffffffffffffffffffffffffffffff1661231e565b145b15612b2057612b1e6000612329565b505b600160009054906101000a900473ffffffffffffffffffffffffffffffffffffffff1673ffffffffffffffffffffffffffffffffffffffff166338cc48316040518163ffffffff1660e01b8152600401602060405180830381600087803b158015612b8a57600080fd5b505af1158015612b9e573d6000803e3d6000fd5b505050506040513d6020811015612bb457600080fd5b810190808051906020019092919050505073ffffffffffffffffffffffffffffffffffffffff166000809054906101000a900473ffffffffffffffffffffffffffffffffffffffff1673ffffffffffffffffffffffffffffffffffffffff1614612cfd57600160009054906101000a900473ffffffffffffffffffffffffffffffffffffffff1673ffffffffffffffffffffffffffffffffffffffff166338cc48316040518163ffffffff1660e01b8152600401602060405180830381600087803b158015612c8257600080fd5b505af1158015612c96573d6000803e3d6000fd5b505050506040513d6020811015612cac57600080fd5b81019080805190602001909291905050506000806101000a81548173ffffffffffffffffffffffffffffffffffffffff021916908373ffffffffffffffffffffffffffffffffffffffff1602179055505b60008060009054906101000a900473ffffffffffffffffffffffffffffffffffffffff1673ffffffffffffffffffffffffffffffffffffffff16632ef3accc86856040518363ffffffff1660e01b81526004018080602001838152602001828103825284818151815260200191508051906020019080838360005b83811015612d93578082015181840152602081019050612d78565b50505050905090810190601f168015612dc05780820380516001836020036101000a031916815260200191505b509350505050602060405180830381600087803b158015612de057600080fd5b505af1158015612df4573d6000803e3d6000fd5b505050506040513d6020811015612e0a57600080fd5b81019080805190602001909291905050509050823a02670de0b6b3a764000001811115612e3d576000801b915050612fe2565b6060612e4885613bc6565b90506000809054906101000a900473ffffffffffffffffffffffffffffffffffffffff1673ffffffffffffffffffffffffffffffffffffffff1663c55c1cb68360008985896040518663ffffffff1660e01b8152600401808581526020018060200180602001848152602001838103835286818151815260200191508051906020019080838360005b83811015612eec578082015181840152602081019050612ed1565b50505050905090810190601f168015612f195780820380516001836020036101000a031916815260200191505b50838103825285818151815260200191508051906020019080838360005b83811015612f52578082015181840152602081019050612f37565b50505050905090810190601f168015612f7f5780820380516001836020036101000a031916815260200191505b5096505050505050506020604051808303818588803b158015612fa157600080fd5b505af1158015612fb5573d6000803e3d6000fd5b50505050506040513d6020811015612fcc57600080fd5b8101908080519060200190929190505050925050505b9392505050565b600080613009731d3b2638a7cc9f2cb3d298a3da7a90b67e5506ed61231e565b11156130ab57731d3b2638a7cc9f2cb3d298a3da7a90b67e5506ed600160006101000a81548173ffffffffffffffffffffffffffffffffffffffff021916908373ffffffffffffffffffffffffffffffffffffffff1602179055506130a26040518060400160405280600b81526020017f6574685f6d61696e6e6574000000000000000000000000000000000000000000815250613c46565b6001905061353d565b60006130ca73c03a2615d5efaf5f49f60b7bb6583eaec212fdf161231e565b111561316c5773c03a2615d5efaf5f49f60b7bb6583eaec212fdf1600160006101000a81548173ffffffffffffffffffffffffffffffffffffffff021916908373ffffffffffffffffffffffffffffffffffffffff1602179055506131636040518060400160405280600c81526020017f6574685f726f707374656e330000000000000000000000000000000000000000815250613c46565b6001905061353d565b600061318b73b7a07bcf2ba2f2703b24c0691b5278999c59ac7e61231e565b111561322d5773b7a07bcf2ba2f2703b24c0691b5278999c59ac7e600160006101000a81548173ffffffffffffffffffffffffffffffffffffffff021916908373ffffffffffffffffffffffffffffffffffffffff1602179055506132246040518060400160405280600981526020017f6574685f6b6f76616e0000000000000000000000000000000000000000000000815250613c46565b6001905061353d565b600061324c73146500cfd35b22e4a392fe0adc06de1a1368ed4861231e565b11156132ee5773146500cfd35b22e4a392fe0adc06de1a1368ed48600160006101000a81548173ffffffffffffffffffffffffffffffffffffffff021916908373ffffffffffffffffffffffffffffffffffffffff1602179055506132e56040518060400160405280600b81526020017f6574685f72696e6b656279000000000000000000000000000000000000000000815250613c46565b6001905061353d565b600061330d73a2998efd205fb9d4b4963afb70778d6354ad3a4161231e565b11156133af5773a2998efd205fb9d4b4963afb70778d6354ad3a41600160006101000a81548173ffffffffffffffffffffffffffffffffffffffff021916908373ffffffffffffffffffffffffffffffffffffffff1602179055506133a66040518060400160405280600a81526020017f6574685f676f65726c6900000000000000000000000000000000000000000000815250613c46565b6001905061353d565b60006133ce736f485c8bf6fc43ea212e93bbf8ce046c7f1cb47561231e565b111561343257736f485c8bf6fc43ea212e93bbf8ce046c7f1cb475600160006101000a81548173ffffffffffffffffffffffffffffffffffffffff021916908373ffffffffffffffffffffffffffffffffffffffff1602179055506001905061353d565b60006134517320e12a1f859b3feae5fb2a0a32c18f5a65555bbf61231e565b11156134b5577320e12a1f859b3feae5fb2a0a32c18f5a65555bbf600160006101000a81548173ffffffffffffffffffffffffffffffffffffffff021916908373ffffffffffffffffffffffffffffffffffffffff1602179055506001905061353d565b60006134d47351efaf4c8b3c9afbd5ab9f4bbc82784ab6ef8faa61231e565b1115613538577351efaf4c8b3c9afbd5ab9f4bbc82784ab6ef8faa600160006101000a81548173ffffffffffffffffffffffffffffffffffffffff021916908373ffffffffffffffffffffffffffffffffffffffff1602179055506001905061353d565b600090505b90565b600080600190508284511461355457600080fd5b60008090505b838110156135e45784818151811061356e57fe5b602001015160f81c60f81b7effffffffffffffffffffffffffffffffffffffffffffffffffffffffffffff19168682602081106135a757fe5b1a60f81b7effffffffffffffffffffffffffffffffffffffffffffffffffffffffffffff1916146135d757600091505b808060010191505061355a565b50809150509392505050565b6000806000806000606060206040519080825280601f01601f19166020018201604052801561362e5781602001600182028038833980820191505090505b509050600060208960038151811061364257fe5b602001015160f81c60f81b60f81c60ff1603600401905061366889826020856000611f36565b9150606060206040519080825280601f01601f1916602001820160405280156136a05781602001600182028038833980820191505090505b5090506022820191506136dc8a60208c60018603815181106136be57fe5b602001015160f81c60f81b60f81c60ff160384016020846000611f36565b905060208301519450602081015193506136f98b601b8787613c60565b80975081985050508573ffffffffffffffffffffffffffffffffffffffff16898051906020012060001c73ffffffffffffffffffffffffffffffffffffffff16141561374f5760019750505050505050506137a7565b61375c8b601c8787613c60565b80975081985050508573ffffffffffffffffffffffffffffffffffffffff16898051906020012060001c73ffffffffffffffffffffffffffffffffffffffff16149750505050505050505b9392505050565b600080606060028560018601815181106137c457fe5b602001015160f81c60f81b60f81c60ff16016040519080825280601f01601f1916602001820160405280156138085781602001600182028038833980820191505090505b50905061381a85858351846000611f36565b506060604080519080825280601f01601f1916602001820160405280156138505781602001600182028038833980820191505090505b5090506138638660046040846000611f36565b50606060626040519080825280601f01601f19166020018201604052801561389a5781602001600182028038833980820191505090505b509050600160f81b816000815181106138af57fe5b60200101907effffffffffffffffffffffffffffffffffffffffffffffffffffffffffffff1916908160001a9053506138f087604188036041846001611f36565b5060606040518060400160405280602081526020017ffd94fa71bc0ba10d39d464d0d8f465efeef0a2764e3887fcc9df41ded20f505c815250905061393b8160006020856042611f36565b506139e46002836040518082805190602001908083835b602083106139755780518252602082019150602081019050602083039250613952565b6001836020036101000a038019825116818451168082178552505050505050905001915050602060405180830381855afa1580156139b7573d6000803e3d6000fd5b5050506040513d60208110156139cc57600080fd5b810190808051906020019092919050505085856135f0565b9450846139f957600095505050505050613bc0565b6060604051806060016040528060408152602001614184604091399050606060426040519080825280601f01601f191660200182016040528015613a4c5781602001600182028038833980820191505090505b50905060fe60f81b81600081518110613a6157fe5b60200101907effffffffffffffffffffffffffffffffffffffffffffffffffffffffffffff1916908160001a905350613aa08a60036041846001611f36565b50606060028b604581518110613ab257fe5b602001015160f81c60f81b60f81c60ff16016040519080825280601f01601f191660200182016040528015613af65781602001600182028038833980820191505090505b509050613b098b60448351846000611f36565b50613bb26002836040518082805190602001908083835b60208310613b435780518252602082019150602081019050602083039250613b20565b6001836020036101000a038019825116818451168082178552505050505050905001915050602060405180830381855afa158015613b85573d6000803e3d6000fd5b5050506040513d6020811015613b9a57600080fd5b810190808051906020019092919050505082856135f0565b975087985050505050505050505b92915050565b6060613bd0613ca4565b613bd86140d4565b613be481610400613cb0565b613bed81613cfa565b60008090505b8351811015613c2f57613c22848281518110613c0b57fe5b602002602001015183613d0890919063ffffffff16565b8080600101915050613bf3565b50613c3981613d2d565b8060000151915050919050565b8060029080519060200190613c5c92919061402d565b5050565b60008060008060405188815287602082015286604082015285606082015260208160808360006001610bb8f192508051915050818193509350505094509492505050565b60405180590338823950565b6000819050600060208281613cc157fe5b0614613cda5760208181613cd157fe5b06602003810190505b808360200181815250506040518084526000815281810160405250505050565b613d05816004613d3b565b50565b613d158260028351613d5c565b613d288183613e9c90919063ffffffff16565b505050565b613d38816007613d3b565b50565b613d58601f60058360ff16901b1783613f4790919063ffffffff16565b5050565b60178111613d8857613d838160058460ff16901b60ff161784613f4790919063ffffffff16565b613e97565b60ff8111613dc957613dad601860058460ff16901b1784613f4790919063ffffffff16565b613dc381600185613f879092919063ffffffff16565b50613e96565b61ffff8111613e0b57613def601960058460ff16901b1784613f4790919063ffffffff16565b613e0581600285613f879092919063ffffffff16565b50613e95565b63ffffffff8111613e4f57613e33601a60058460ff16901b1784613f4790919063ffffffff16565b613e4981600485613f879092919063ffffffff16565b50613e94565b67ffffffffffffffff8111613e9357613e7b601b60058460ff16901b1784613f4790919063ffffffff16565b613e9181600885613f879092919063ffffffff16565b505b5b5b5b5b505050565b613ea46140d4565b82602001518360000151518351011115613ed457613ed3836002613ecd86602001518651613fee565b0261400a565b5b60008060008451905085518051602081830101945086518101825260208701935050505b60208110613f1b5781518352602083019250602082019150602081039050613ef8565b60006001826020036101000a039050801983511681855116818117865250508694505050505092915050565b81602001516001836000015151011115613f6d57613f6c82600284602001510261400a565b5b815180516020818301018381536001820183525050505050565b613f8f6140d4565b836020015184600001515183011115613fbd57613fbc846002613fb6876020015186613fee565b0261400a565b5b60006001836101000a0390508451805184818301018684198251161781528582018352505050849150509392505050565b60008183111561400057829050614004565b8190505b92915050565b60608260000151905061401d8383613cb0565b6140278382613e9c565b50505050565b828054600181600116156101000203166002900490600052602060002090601f016020900481019282601f1061406e57805160ff191683800117855561409c565b8280016001018555821561409c579182015b8281111561409b578251825591602001919060010190614080565b5b5090506140a991906140ee565b5090565b60405180608001604052806004905b60608152602001906001900390816140bc5790505090565b604051806040016040528060608152602001600081525090565b61411091905b8082111561410c5760008160009055506001016140f4565b5090565b9056fe50726f7661626c65207175657279207761732073656e742c207374616e64696e6720666f722074686520616e737765722e496e73756666696369656e7420636f6e74726163742042616c616e636520746f2070617920706f74656e7469616c2077696e732120426574204c6f776572217fb956469c5c9b89840d55b43537e66a98dd4811ea0a27224272c2e5622911e8537a2f8e86a46baec82864e98dd01e9ccc2f8bc5dfc9cbe5a91a290498dd96e44f6e6c79206f776e65722063616e2073656e64206d6f6e657920746f20636f6e747261637421496e73756666696369656e742066756e647320696e20636f6e747261637420746f20706179206f757420706f737369626c652077696e2e20506c6561736520626574206c6f77657221a265627a7a723158205b9891e7f79946d6e84f35d79bead7bac657666596231322e0d6ade5bb9e35fb64736f6c63430005100032",
  "source": "pragma solidity 0.5.16;\r\n\r\nimport \"./provableAPI.sol\";\r\n\r\ncontract CoinFlip is usingProvable{\r\n\r\n    //VARIABLES & Structs\r\n    uint256 constant NUM_RANDOM_BYTES_REQUESTED = 1; //1 Byte gives 256 possible combinations! 1 Byte = 8 bits!\r\n\r\n\r\n    struct Bet{\r\n      address payable player;\r\n      uint betValue;\r\n      bool result;\r\n    }\r\n\r\n\r\n    //EVENTS\r\n    event betTaken(address indexed player, bytes32 Id, uint betValue, bool result);\r\n    event betPlaced(address indexed player, bytes32 queryID, uint value);\r\n    event contractFunded(address owner, uint funds);\r\n    event LogNewProvableQuery(string description);\r\n    event generatedRandomNumber(uint256 randomNumber);\r\n    event CoinFlipped(string result);\r\n\r\n    //Mappings\r\n    mapping (bytes32 => Bet) public bets; //Connects queryID to respective bet\r\n    mapping(address => bool) public waiting; //connects player to result, this is the waiting system\r\n\r\n\r\n\r\n    address owner;\r\n    uint contractBalance = 0;\r\n    string result;\r\n\r\n    constructor() public payable{\r\n        owner = msg.sender;\r\n    }\r\n\r\n\r\n\r\n    function placeBet(bool _bet) public payable returns(string memory){\r\n      require(msg.value <= contractBalance/2, \"Insufficient contract Balance to pay potential wins! Bet Lower!\");\r\n      require(contractBalance >= msg.value*2, \"Insufficient funds in contract to pay out possible win. Please bet lower!\");\r\n      waiting[msg.sender] = true;\r\n\r\n      uint256 QUERY_EXECUTION_DELAY = 0;\r\n      uint256 GAS_FOR_CALLBACK = 200000;\r\n      bytes32 queryID = provable_newRandomDSQuery(\r\n          QUERY_EXECUTION_DELAY,\r\n          NUM_RANDOM_BYTES_REQUESTED,\r\n          GAS_FOR_CALLBACK\r\n        );\r\n\r\n        bets[queryID] = Bet({player: msg.sender, betValue: msg.value, result: false});\r\n\r\n          emit betPlaced(msg.sender, queryID, msg.value);\r\n          emit LogNewProvableQuery(\"Provable query was sent, standing for the answer.\");\r\n\r\n\r\n      if (_bet == true && bets[queryID].result == true){\r\n        contractBalance -= msg.value * 2;\r\n        msg.sender.transfer(msg.value * 2);\r\n        result = \"You WIN!\";\r\n        emit CoinFlipped(result);\r\n      }\r\n      else if(_bet == false && bets[queryID].result == false){\r\n        contractBalance -= msg.value * 2;\r\n        msg.sender.transfer(msg.value * 2);\r\n        result = \"You WIN!\";\r\n        emit CoinFlipped(result);\r\n      }\r\n      else{\r\n        contractBalance += msg.value;\r\n        result = \"You LOOSE! Try Again!\";\r\n        emit CoinFlipped(result);\r\n      }\r\n\r\n        return result;\r\n    }\r\n\r\n    function __callback(bytes32 _queryID, string memory _result, bytes memory _proof) public {\r\n        require(msg.sender == provable_cbAddress());\r\n\r\n        if (provable_randomDS_proofVerify__returnCode(_queryID, _result, _proof) != 0) {\r\n                  /*\r\n                   * @notice  The proof verification has failed! Handle this case\r\n                   *          however you see fit. --> Not sure what to do here.\r\n                  */\r\n              }\r\n              else {\r\n        uint256 randomNumber = uint256(keccak256(abi.encodePacked(_result))) % 2; //Generating random Number between 0 and 1\r\n        if(randomNumber == 1){\r\n          bets[_queryID].result = true;\r\n        }\r\n        else if (randomNumber == 0)\r\n        {\r\n          bets[_queryID].result = false;\r\n        }\r\n        emit generatedRandomNumber(randomNumber);\r\n    }\r\n        waiting[msg.sender] = false;\r\n\r\n        emit betTaken(bets[_queryID].player, _queryID, bets[_queryID].betValue, bets[_queryID].result);\r\n    }\r\n\r\n\r\n\r\n\r\n        function deposit() public payable{\r\n            require(msg.sender == owner, \"Only owner can send money to contract!\");\r\n            contractBalance += msg.value;\r\n            emit contractFunded(owner, msg.value);\r\n        }\r\n\r\n        function getContractBalance() public view returns(uint){\r\n          return contractBalance;\r\n        }\r\n\r\n        function withdraw() public payable returns(uint){\r\n          require(msg.sender == owner, \"Only owner can withdraw!\");\r\n          msg.sender.transfer(contractBalance);\r\n          contractBalance = 0;\r\n          return contractBalance;\r\n        }\r\n\r\n\r\n\r\n}\r\n",
  "sourcePath": "C:/Users/sound/Desktop/IvanAcademy/EthCoding2/CoinFlipProjectOracle/contracts/CoinFlip.sol",
  "compiler": {
    "name": "solc",
    "version": "0.5.16+commit.9c3226ce.Emscripten.clang"
  },
  "schemaVersion": "3.3.4",
  "updatedAt": "2021-03-03T21:58:10.334Z",
  "networkType": "ethereum",
  "devdoc": {
    "methods": {
      "__callback(bytes32,string)": {
        "details": "The following `__callback` functions are just placeholders ideally     meant to be defined in child contract when proofs are used.     The function bodies simply silence compiler warnings."
      }
    }
  },
  "userdoc": {
    "methods": {}
  }
}